{
    "contractName": "Level1Template",
    "abi": [
        {
            "inputs": [
                {
                    "internalType": "uint256[2][3]",
                    "name": "x",
                    "type": "uint256[2][3]"
                },
                {
                    "internalType": "uint256[2][3]",
                    "name": "y",
                    "type": "uint256[2][3]"
                }
            ],
            "name": "solution",
            "outputs": [
                {
                    "internalType": "uint256[2][3]",
                    "name": "finalArray",
                    "type": "uint256[2][3]"
                }
            ],
            "stateMutability": "pure",
            "type": "function"
        }
    ],
    "bytecode": "608060405234801561001057600080fd5b50610189806100206000396000f3fe608060405234801561001057600080fd5b506004361061002b5760003560e01c8063342a2d9a14610030575b600080fd5b61004361003e3660046100c3565b610059565b60405161005091906100f9565b60405180910390f35b610061610067565b92915050565b60405180606001604052806003905b61007e610094565b8152602001906001900390816100765790505090565b60405180604001604052806002906020820280368337509192915050565b8060c0810183101561006157600080fd5b60008061018083850312156100d757600080fd5b6100e184846100b2565b91506100f08460c085016100b2565b90509250929050565b60c0810181836000805b600381101561014957825184835b6002811015610130578251825260209283019290910190600101610111565b5050506040939093019260209290920191600101610103565b505050509291505056fea26469706673582212206a9d902f52e598f72db0e93a6da88c2bcbf2fd463bc51c570c2d16bbee886dcd64736f6c63430008130033",
    "sourcePath": "/home/kss/coding_stuff/ExpertSolidityBootcamp/CaptureTheFlag/Level1.sol",
    "compiler": {
        "name": "solc",
        "version": "0.8.19+commit.7dd6d404"
    },
    "functionHashes": {
        "solution(uint256[2][3],uint256[2][3])": "342a2d9a"
    },
    "gasEstimates": {
        "creation": {
            "codeDepositCost": "78600",
            "executionCost": "129",
            "totalCost": "78729"
        },
        "external": {
            "solution(uint256[2][3],uint256[2][3])": "infinite"
        }
    }
}