{
    "contractName": "Level4Template",
    "abi": [
        {
            "inputs": [
                {
                    "internalType": "uint256",
                    "name": "number",
                    "type": "uint256"
                }
            ],
            "name": "solution",
            "outputs": [
                {
                    "internalType": "uint256",
                    "name": "",
                    "type": "uint256"
                }
            ],
            "stateMutability": "pure",
            "type": "function"
        }
    ],
    "bytecode": "6080604052348015600f57600080fd5b50609e8061001e6000396000f3fe6080604052348015600f57600080fd5b506004361060285760003560e01c8063db53653e14602d575b600080fd5b603e60383660046050565b50600090565b60405190815260200160405180910390f35b600060208284031215606157600080fd5b503591905056fea2646970667358221220a491e4cd57f00bdc0eaeaabf66be050052e0b9e4c34cad54929535d55526046c64736f6c63430008130033",
    "sourcePath": "/home/kss/coding_stuff/ExpertSolidityBootcamp/CaptureTheFlag/Level4.sol",
    "compiler": {
        "name": "solc",
        "version": "0.8.19+commit.7dd6d404"
    },
    "functionHashes": {
        "solution(uint256)": "db53653e"
    },
    "gasEstimates": {
        "creation": {
            "codeDepositCost": "31600",
            "executionCost": "81",
            "totalCost": "31681"
        },
        "external": {
            "solution(uint256)": "240"
        }
    }
}