{
    "contractName": "Level5Template",
    "abi": [
        {
            "inputs": [
                {
                    "internalType": "int256",
                    "name": "a",
                    "type": "int256"
                },
                {
                    "internalType": "int256",
                    "name": "b",
                    "type": "int256"
                }
            ],
            "name": "solution",
            "outputs": [
                {
                    "internalType": "int256",
                    "name": "",
                    "type": "int256"
                }
            ],
            "stateMutability": "pure",
            "type": "function"
        }
    ],
    "bytecode": "6080604052348015600f57600080fd5b5060a98061001e6000396000f3fe6080604052348015600f57600080fd5b506004361060285760003560e01c80632c81ea3514602d575b600080fd5b604060383660046052565b600092915050565b60405190815260200160405180910390f35b60008060408385031215606457600080fd5b5050803592602090910135915056fea26469706673582212207cef7caf83487b20e16f515c047ba88eb7f0a61327b9ad69490ed11dcbd9531664736f6c63430008130033",
    "sourcePath": "/home/kss/coding_stuff/ExpertSolidityBootcamp/CaptureTheFlag/Level5.sol",
    "compiler": {
        "name": "solc",
        "version": "0.8.19+commit.7dd6d404"
    },
    "functionHashes": {
        "solution(int256,int256)": "2c81ea35"
    },
    "gasEstimates": {
        "creation": {
            "codeDepositCost": "33800",
            "executionCost": "87",
            "totalCost": "33887"
        },
        "external": {
            "solution(int256,int256)": "268"
        }
    }
}