{
    "contractName": "Level6Template",
    "abi": [
        {
            "inputs": [
                {
                    "internalType": "address",
                    "name": "owner",
                    "type": "address"
                },
                {
                    "internalType": "bytes32",
                    "name": "messageHash",
                    "type": "bytes32"
                },
                {
                    "internalType": "uint8",
                    "name": "v",
                    "type": "uint8"
                },
                {
                    "internalType": "bytes32",
                    "name": "r",
                    "type": "bytes32"
                },
                {
                    "internalType": "bytes32",
                    "name": "s",
                    "type": "bytes32"
                }
            ],
            "name": "solution",
            "outputs": [
                {
                    "internalType": "bool",
                    "name": "isSignedByOwner",
                    "type": "bool"
                }
            ],
            "stateMutability": "pure",
            "type": "function"
        }
    ],
    "bytecode": "608060405234801561001057600080fd5b5060ee8061001f6000396000f3fe6080604052348015600f57600080fd5b506004361060285760003560e01c806302b59fd514602d575b600080fd5b604360383660046057565b600095945050505050565b604051901515815260200160405180910390f35b600080600080600060a08688031215606e57600080fd5b85356001600160a01b0381168114608457600080fd5b945060208601359350604086013560ff8116811460a057600080fd5b9497939650939460608101359450608001359291505056fea26469706673582212201389e5ea5bfcff4dea441563bfe1b2acff95f2e71d735bf1ea1c7f7eac41876364736f6c63430008130033",
    "sourcePath": "/home/kss/coding_stuff/ExpertSolidityBootcamp/CaptureTheFlag/Level6.sol",
    "compiler": {
        "name": "solc",
        "version": "0.8.19+commit.7dd6d404"
    },
    "functionHashes": {
        "solution(address,bytes32,uint8,bytes32,bytes32)": "02b59fd5"
    },
    "gasEstimates": {
        "creation": {
            "codeDepositCost": "47600",
            "executionCost": "99",
            "totalCost": "47699"
        },
        "external": {
            "solution(address,bytes32,uint8,bytes32,bytes32)": "422"
        }
    }
}