{
    "contractName": "Level3Template",
    "abi": [
        {
            "inputs": [
                {
                    "internalType": "bytes",
                    "name": "packed",
                    "type": "bytes"
                }
            ],
            "name": "solution",
            "outputs": [
                {
                    "internalType": "uint16",
                    "name": "a",
                    "type": "uint16"
                },
                {
                    "internalType": "bool",
                    "name": "b",
                    "type": "bool"
                },
                {
                    "internalType": "bytes6",
                    "name": "c",
                    "type": "bytes6"
                }
            ],
            "stateMutability": "pure",
            "type": "function"
        }
    ],
    "bytecode": "608060405234801561001057600080fd5b50610173806100206000396000f3fe608060405234801561001057600080fd5b506004361061002b5760003560e01c8063ce0b123814610030575b600080fd5b61004861003e36600461008c565b5060009081908190565b6040805161ffff909416845291151560208401526001600160d01b0319169082015260600160405180910390f35b634e487b7160e01b600052604160045260246000fd5b60006020828403121561009e57600080fd5b813567ffffffffffffffff808211156100b657600080fd5b818401915084601f8301126100ca57600080fd5b8135818111156100dc576100dc610076565b604051601f8201601f19908116603f0116810190838211818310171561010457610104610076565b8160405282815287602084870101111561011d57600080fd5b82602086016020830137600092810160200192909252509594505050505056fea2646970667358221220ee47f04550fd0f6058c7cabd560ad6ec73cacbcd4a26769b2afe1d0430bf767f64736f6c63430008130033",
    "sourcePath": "/home/kss/coding_stuff/ExpertSolidityBootcamp/CaptureTheFlag/Level3.sol",
    "compiler": {
        "name": "solc",
        "version": "0.8.19+commit.7dd6d404"
    },
    "functionHashes": {
        "solution(bytes)": "ce0b1238"
    },
    "gasEstimates": {
        "creation": {
            "codeDepositCost": "74200",
            "executionCost": "123",
            "totalCost": "74323"
        },
        "external": {
            "solution(bytes)": "infinite"
        }
    }
}