{
    "contractName": "Level0Template",
    "abi": [
        {
            "inputs": [],
            "name": "solution",
            "outputs": [
                {
                    "internalType": "uint8",
                    "name": "",
                    "type": "uint8"
                }
            ],
            "stateMutability": "pure",
            "type": "function"
        }
    ],
    "bytecode": "6080604052348015600f57600080fd5b50607d80601d6000396000f3fe6080604052348015600f57600080fd5b506004361060285760003560e01c80634fb6025114602d575b600080fd5b6031005b60405160ff909116815260200160405180910390f3fea264697066735822122020e4de67d9fb0236113f44a72655cdfe191e9d1661bccca8177d8b02da2e10ba64736f6c63430008130033",
    "sourcePath": "/home/kss/coding_stuff/ExpertSolidityBootcamp/CaptureTheFlag/Level0.sol",
    "compiler": {
        "name": "solc",
        "version": "0.8.19+commit.7dd6d404"
    },
    "functionHashes": {
        "solution()": "4fb60251"
    },
    "gasEstimates": {
        "creation": {
            "codeDepositCost": "25000",
            "executionCost": "75",
            "totalCost": "25075"
        },
        "external": {
            "solution()": "101"
        }
    }
}