{
    "contractName": "Level2Template",
    "abi": [
        {
            "inputs": [
                {
                    "internalType": "uint256[10]",
                    "name": "unsortedArray",
                    "type": "uint256[10]"
                }
            ],
            "name": "solution",
            "outputs": [
                {
                    "internalType": "uint256[10]",
                    "name": "sortedArray",
                    "type": "uint256[10]"
                }
            ],
            "stateMutability": "nonpayable",
            "type": "function"
        }
    ],
    "bytecode": "608060405234801561001057600080fd5b50610109806100206000396000f3fe6080604052348015600f57600080fd5b506004361060285760003560e01c8063209b472e14602d575b600080fd5b603c6038366004607a565b6050565b6040516047919060a3565b60405180910390f35b6056605b565b919050565b604051806101400160405280600a906020820280368337509192915050565b6000610140808385031215608d57600080fd5b838184011115609b57600080fd5b509092915050565b6101408101818360005b600a81101560ca57815183526020928301929091019060010160ad565b5050509291505056fea2646970667358221220f585664f4d3c865867d7706bbffab57636b3ece35d8cbea386c7ea7a0a5ad1c764736f6c63430008130033",
    "sourcePath": "/home/kss/coding_stuff/ExpertSolidityBootcamp/CaptureTheFlag/Level2.sol",
    "compiler": {
        "name": "solc",
        "version": "0.8.19+commit.7dd6d404"
    },
    "functionHashes": {
        "solution(uint256[10])": "209b472e"
    },
    "gasEstimates": {
        "creation": {
            "codeDepositCost": "53000",
            "executionCost": "105",
            "totalCost": "53105"
        },
        "external": {
            "solution(uint256[10])": "infinite"
        }
    }
}