{
    "contractName": "Level7Template",
    "abi": [
        {
            "inputs": [
                {
                    "internalType": "address",
                    "name": "addr",
                    "type": "address"
                }
            ],
            "name": "solution",
            "outputs": [
                {
                    "internalType": "uint256",
                    "name": "codeSize",
                    "type": "uint256"
                }
            ],
            "stateMutability": "pure",
            "type": "function"
        }
    ],
    "bytecode": "608060405234801561001057600080fd5b5060b48061001f6000396000f3fe6080604052348015600f57600080fd5b506004361060285760003560e01c8063d23906fc14602d575b600080fd5b603e60383660046050565b50600090565b60405190815260200160405180910390f35b600060208284031215606157600080fd5b81356001600160a01b0381168114607757600080fd5b939250505056fea2646970667358221220873b1762cd53b0c658137ffd73766a308745e310fb51a5a4dfaff94f988e1d0164736f6c63430008130033",
    "sourcePath": "/home/kss/coding_stuff/ExpertSolidityBootcamp/CaptureTheFlag/Level7.sol",
    "compiler": {
        "name": "solc",
        "version": "0.8.19+commit.7dd6d404"
    },
    "functionHashes": {
        "solution(address)": "d23906fc"
    },
    "gasEstimates": {
        "creation": {
            "codeDepositCost": "36000",
            "executionCost": "87",
            "totalCost": "36087"
        },
        "external": {
            "solution(address)": "286"
        }
    }
}